:03000000020426D1
:0C042600787FE4F6D8FD758126020125E0
:0403C200EF4E601486
:1003C60000750E02750FC7D50FFDD50EFAEF1F701B
:0203D600EB1E1C
:0303D80080E82298
:06041700C2B68F80D2B4D2
:08041D007F027EEFDEFEDFFC32
:0104250022B4
:0A043200C2B5120417C2B402041D83
:10038700CFCDCFCECCCE1202317C007D0A12023106
:04039700ED2430FF22
:0A039B00D2B5120417C2B402041D0B
:1003DB00AE07BE0104ED148006BE0209ED243F44B6
:0603EB0080FF1204322223
:1003F1007F381204327F0C1204327F061204327FDE
:0404010001020432BE
:0A043C00AC031203DBAF0402039BC4
:060364008B0D8A0E890FCB
:10036A001203DBE4FDAB0DAA0EA90F8D8275830083
:0C037A001201F2FF600612039B0D80E9E7
:010386002254
:0C0331007F0AEA24FFFDE434FFFC7E009C
:08033D008E128F138C148D1534
:100345007F017E00E4FBEBC39515E5146480F8742A
:0E0355008098500AAC12AD1312021F0B80E804
:010363002277
:0403A5008A0F8B1020
:1003A9001203DBAA11EAD39400400D120331AC0FFA
:0803B900AD101203871A80ED5C
:0103C1002219
:100286001203DBC3EA64809480400B7F2B12039B2E
:100296008A1B8B1C800E7F2D12039BC3E49BF51CCF
:1002A600E49AF51BAA1AEAD39400400D120331AC66
:0902B6001BAD1C1203871A80ED38
:0102BF00221C
:0402C0008A1F8B20E6
:1002C4001203DBAA21EAD3940040297F10120333DE
:1002D400AC1FAD20CFCDCFCECCCE120231EF540F18
:1002E400FEC3940AEE5004243080022437FF120324
:0402F4009B1A80D100
:0102F80022E3
:0402F9008A248B25A3
:1002FD001203DBAA26EAD394004028EA24FFFDE48A
:10030D0034FFFC7F027E0012033DAC24AD25CFCD22
:10031D00CFCECCCE120231EF54012430FF12039B0D
:03032D001A80D261
:0103300022AA
:1004050050617373576F72643A004F4B2000455229
:02041500520093
:10012500E4F508F509F50AF50BF50C1203F17BFF6B
:100135007A0479057D017F01120364751104E4FBDE
:10014500FA7D017F021203A51200038F08E50860FE
:10015500F7D394094006E508640A7041C3E50C9499
:1001650004E50B94005028AE09AF0A7C007D0A1205
:10017500021F8E098F0AE50875F00A84E5F0250A45
:10018500F50AE43509F509050CE50C7002050B7552
:100195001104AB0AAA097D017F021203A5E50864D3
:1001A5000B7036E50AB4140DE509B40A087BFF7A2D
:1001B50004790F80067BFF7A0479137D0D7F011288
:1001C5000364E4F509F50AF50BF50C751104AB0AA2
:1001D500AA097D017F021203A5E508640C600302EC
:0D01E500014DF509F50AF50BF50C02014D71
:10000300E4F50D75B0FFC2B420B0137F14FE1203E4
:10001300C230B0FD7F147E001203C2750D0120B102
:10002300147F147E001203C230B1FD7F147E0012D0
:1000330003C2750D0420B2147F147E001203C23074
:10004300B2FD7F147E001203C2750D0720B3147F27
:10005300147E001203C230B3FD7F147E001203C26C
:10006300750D0BC2B520B0147F147E001203C2308D
:10007300B0FD7F147E001203C2750D0220B1147F00
:10008300147E001203C230B1FD7F147E001203C23E
:10009300750D0520B2147F147E001203C230B2FD29
:1000A3007F147E001203C2750D0820B3147F147EE3
:1000B300001203C230B3FD7F147E001203C2750D1C
:1000C3000AC2B620B0147F147E001203C230B0FD02
:1000D3007F147E001203C2750D0320B1147F147EBA
:1000E300001203C230B1FD7F147E001203C2750DEE
:1000F3000620B2147F147E001203C230B2FD7F14B7
:100103007E001203C2750D0920B3147F147E001202
:1001130003C230B3FD7F147E001203C2750D0CAF12
:010123000DCE
:0101240022B8
:1001F200BB010CE58229F582E5833AF583E02250C2
:1002020006E92582F8E622BBFE06E92582F8E2220B
:0D021200E58229F582E5833AF583E4932225
:10021F00EF8DF0A4A8F0CF8CF0A428CE8DF0A42EF3
:02022F00FE22AD
:10023100BC000BBE0029EF8DF084FFADF022E4CCB1
:10024100F875F008EF2FFFEE33FEEC33FCEE9DEC7A
:10025100984005FCEE9DFE0FD5F0E9E4CEFD22EDC0
:10026100F8F5F0EE8420D21CFEADF075F008EF2F0A
:10027100FFED33FD4007985006D5F0F222C398FDFB
:050281000FD5F0EA2298
:00000001FF
