:0300000002009C5F
:0C009C00787FE4F6D8FD7581070200456E
:10007F00C2B6E4FEC2B5EF30E004D2B48002C2B41F
:0C008F00D2B5EFC313FF0EBE08EAD2B6D4
:01009B002242
:10000300C2B67401A807088002C333D8FCF4FFE426
:10001300FEC2B5EF30E004D2B48002C2B4D2B5EF71
:10002300C313FF0EBE08EAE4FEC2B5ED30E004D20E
:10003300B48002C2B4D2B5EDC313FD0EBE08EAD23A
:01004300B606
:010044002299
:100045007D3CE4FF1200037D427F011200037DA980
:100055007F021200037D857F031200037D857F04E7
:100065001200037DA97F051200037D427F06120061
:0A007500037D3C7F0712000380C6E4
:00000001FF
