:0300000002000EED
:0C000E00787FE4F6D8FD75811C020055D7
:0801F5000212000002140001D7
:1001A500E4F51B1202281202608F1BE51B60F7FDA8
:1001B5007C007F017E00120003E51BFD7C007F02B1
:1001C5007E00120003E51BFD7C007F037E0012000C
:0301D5000380D3D1
:03000B0002009A56
:10009A00C0E0C0F0C083C082C0D075D000C000C02C
:0D00AA0001C002C003C004C005C006C007AD
:1000B700758A66758CFC0513E51370020512C394E7
:1000C70014E5129400400975120075130012016CB3
:1000D7000515E51570020514C39402E51494004054
:0A00E700097514007515001201D808
:1000F100D007D006D005D004D003D002D001D00063
:0B010100D0D0D082D083D0F0D0E0320C
:04020F00EF4E60143A
:1002130000751902751AC7D51AFDD519FAEF1F70A3
:02022300EB1ED0
:0302250080E8224C
:0301FD00011800E6
:05026000AF18E4F518E1
:010265002276
:10023F00E4FF20B0010F20B1027F0220B2027F0342
:05024F0020B3027F0452
:010254002287
:10016C0085161712023F8F16E517B40107E51670B6
:10017C0003751801E517B40207E51670037518022C
:10018C00E517B40307E5167003751803E517B404F7
:08019C0007E516700375180455
:0101A4002238
:100228005389F0438901758A66758CFCC28DD28C1E
:07023800D2A9D2AFC2B92226
:0B0255003F065B4F666D7D077F6F006A
:0E0200000909000A0A0A0A0A0A0A0A01080184
:0700030074092FF8A6052285
:10010C00C3EF9401EE648094805027EF9408EE6462
:10011C00809480401DEC648094805016ED9409EC22
:10012C0064809480400CD2A77580FFC2A7D2A6E44D
:10013C0080297580FFD2A7EF14FF7401A8070880EF
:10014C0002C333D8FCF4F580C2A7E4F580D2A674C0
:10015C00552DF58274023CF583E493F580C2A622FA
:1001D800AF087E0074092508F8E6FD7C0012010CC2
:0C01E8000508E508C394094003750801F0
:0101F40022E8
:10001A000201A5E493A3F8E493A34003F68001F256
:10002A0008DFF48029E493A3F85407240CC8C333E7
:10003A00C4540F4420C8834004F456800146F6DFB6
:10004A00E4800B01020408102040809001F5E47E50
:10005A00019360BCA3FF543F30E509541FFEE493AB
:10006A00A360010ECF54C025E060A840B8E493A372
:10007A00FAE493A3F8E493A3C8C582C8CAC583CA9D
:10008A00F0A3C8C582C8CAC583CADFE9DEE780BE55
:01020E0000EF
:00000001FF
