:0300000002009C5F
:0C009C00787FE4F6D8FD7581090200842D
:0A00A8003F065B4F666D7D077F6F1A
:080063000D7E001200037F0571
:04006B00EF4E6014E0
:10006F00007508027509C7D509FDD508FAEF1F708D
:02007F00EB1E76
:0300810080E822F2
:10000300C3EF9401EE648094805027EF9408EE646C
:10001300809480401DEC648094805016ED9409EC2C
:1000230064809480400CD2A77580FFC2A7D2A6E457
:1000330080297580FFD2A7EF14FF7401A8070880F9
:1000430002C333D8FCF4F580C2A7E4F580D2A674CA
:10005300A82DF58274003CF583E493F580C2A622B3
:10008400E4F5807D017C007F011200647F02120090
:08009400637F0312006380EB9F
:00000001FF
