:10040500414444522020434D4420204E554D003058
:0E0415003020202020303020202030303000D9
:10028C00E4F514F51512048D1205157BFF7A04792B
:10029C00057D017F011203E27BFF7A0479147D0155
:1002AC007F021203E21204C1EF70061204CEEF605B
:1002BC002812051F8F2D1205228F2CE52DFB7A009D
:1002CC00751A027D017F0212033EE52CFB7A007544
:1002DC001A027D077F0212033EE52CB40702152B90
:1002EC00E52CB41502052BE52BFB7A00751A037D62
:0802FC000C7F0212044180ADE9
:04045E00EF4E6014E9
:1004620000752E02752FC7D52FFDD52EFAEF1F70FE
:02047200EB1E7F
:0304740080E822FB
:0604B200C2B68F80D2B437
:0804B8007F027EEFDEFEDFFC97
:0104C0002219
:0A04F100C2B51204B2C2B40204B88E
:10042300CFCDCFCECCCE1201AB7C007D0A1201AB77
:04043300ED2430FF85
:0A043700D2B51204B2C2B40204B838
:10047700AE07BE0104ED148006BE0209ED243F4419
:0604870080FF1204F122C7
:10048D007F381204F17F0C1204F17F061204F17F04
:04049D00010204F163
:0A04FB00AC03120477AF04020437CB
:0603E2008B168A17891832
:1003E800120477E4FDAB16AA17A9188D827583004D
:0C03F80012016CFF60061204370D80E952
:0104040022D5
:0C03AF007F0AEA24FFFDE434FFFC7E001E
:0803BB008E1B8F1C8C1D8D1E92
:1003C3007F017E00E4FBEBC3951EE51D6480F8749A
:0E03D3008098500AAC1BAD1C1201990B80E8FB
:0103E10022F9
:040441008A188B1971
:10044500120477AA1AEAD39400400D1203AFAC1830
:08045500AD191204231A80ED19
:01045D00227C
:10030400120477C3EA64809480400B7F2B12043775
:100314008A248B25800E7F2D120437C3E49BF52598
:10032400E49AF524AA23EAD39400400D1203AFAC57
:0903340024AD251204231A80ED0A
:01033D00229D
:04033E008A188B1975
:10034200120477AA1AEAD3940040297F101203B14B
:10035200AC18AD19CFCDCFCECCCE1201ABEF540F2E
:10036200FEC3940AEE5004243080022437FF1204A4
:04037200371A80D1E5
:010376002264
:040377008A288B291C
:10037B00120477AA2AEAD394004028EA24FFFDE46A
:10038B0034FFFC7F027E001203BBAC28AD29CFCD1E
:10039B00CFCECCCE1201ABEF54012430FF12043779
:0303AB001A80D2E3
:0103AE00222C
:0B04DB00D288C289D2A8D2AFD2B822CA
:03051B00010800D4
:060515001204A10204DB48
:0D04C100E50F6006E4F50F7F01227F0022A9
:0D04CE00E50D6006E4F50D7F01227F0022A0
:03051F00AF0C22FC
:03052200AF0B22FA
:03000300020006F2
:10000600C0E0C0F0C083C082C0D075D000C000C0C0
:1000160001C002C003C004C005C006C007E50870E1
:100026000EFFFE1204E67F017E0012050E8060E5DB
:1000360008640170601205058E098F0AE4FFFE123E
:1000460004E6D3E50A94A6E509942E4010E50A9441
:100056008EE50994325006750802020151D3E50A6D
:10006600948CE5099426400CE50A9474E509942AD3
:1000760050028015D3E50A948CE50994264010E5D4
:100086000A9474E509942A5006750D010201487513
:100096000801020151E508640260030201511205DC
:1000A600058E098F0AE4FFFE1204E6D3E50A9414CE
:1000B600E5099402402CE50A94FCE50994055022D2
:1000C600E50E131313541F2410F8C000E6FFE50EC7
:1000D6005407FE7401A806088002C333D8FCF45FF7
:1000E6008034D3E50A9426E50994064030E50A945F
:1000F6000EE509940A5026E50E131313541F241017
:10010600F8C000E6FFE50E5407FE7401A806088055
:1001160002C333D8FC4FD000F6050E8006750E00DC
:10012600750801E50EC394204021750E00E511F413
:10013600B5100FE513F4B5120985100C85120B7571
:100146000F01E4FFFE12050E750800D007D006D099
:1001560005D004D003D002D001D000D0D0D082D0B8
:0601660083D0F0D0E0326E
:1004A1005389F0438901758A66758CFCC28DC28CB3
:0104B1002228
:0B04E600AD07AC068C8CAF058F8A229E
:09050500AF8CEFFEAD8AEDFF2280
:07050E00EE4F24FF928C2246
:03000000020200F9
:0C020000787FE4F6D8FD75812F020247DC
:10016C00BB010CE58229F582E5833AF583E0225048
:10017C0006E92582F8E622BBFE06E92582F8E22292
:0D018C00E58229F582E5833AF583E49322AC
:10019900EF8DF0A4A8F0CF8CF0A428CE8DF0A42E7A
:0201A900FE2234
:1001AB00BC000BBE0029EF8DF084FFADF022E4CC38
:1001BB00F875F008EF2FFFEE33FEEC33FCEE9DEC01
:1001CB00984005FCEE9DFE0FD5F0E9E4CEFD22ED47
:1001DB00F8F5F0EE8420D21CFEADF075F008EF2F91
:1001EB00FFED33FD4007985006D5F0F222C398FD82
:0501FB000FD5F0EA221F
:10020C0002028CE493A3F8E493A34003F68001F27A
:10021C0008DFF48029E493A3F85407240CC8C333F3
:10022C00C4540F4420C8834004F456800146F6DFC2
:10023C00E4800B010204081020408090051BE47E32
:10024C00019360BCA3FF543F30E509541FFEE493B7
:10025C00A360010ECF54C025E060A840B8E493A37E
:10026C00FAE493A3F8E493A3C8C582C8CAC583CAA9
:10027C00F0A3C8C582C8CAC583CADFE9DEE780BE61
:01051E0000DC
:00000001FF
