:030000000202BC3D
:0C02BC00787FE4F6D8FD758112020097EF
:10026A0068656C6C6F0057454C434F4D4520544FA1
:08027A00204348494E412100D8
:100097001202987B417D017F011202D27BFF7A0217
:1000A700796A7D037F011201F3750C027B427A00A6
:1000B7007D097F01120234750C027BA87AFF7D0C43
:1000C7007F01120115750C027BA57A007D017F0265
:1000D70012014F750C087BA57A007D047F0212017F
:1000E700887BDF7D0D7F021202D27B437D0E7F026C
:1000F7001202D27BFF7A0279707D107F011201F321
:0E0107007F181202C87FB87E0B12025180F2E0
:0602AC00C2B68F80D2B43F
:0902B200007F027EC7DEFEDFFCC6
:0102BB002220
:0A02C800C2B51202ACC2B40202B2C9
:10021600CFCDCFCECCCE1200427C007D0A1200425A
:04022600ED2430FF94
:0A022A00D2B51202ACC2B40202B257
:100298007F381202C87F0C1202C87F061202C87F7C
:0402A800010202C885
:10028200AE07BE0104ED148006BE0209ED243F4410
:0602920080FF1202C822E9
:0A02D200AC03120282AF0402022AFC
:0601F3008B088A09890A4D
:1001F900120282E4FDAB08AA09A90A8D827583005F
:0C020900120003FF600612022A0D80E9BB
:0102150022C6
:0C01C0007F0AEA24FFFDE434FFFC7E000F
:0801CC008E0F8F108C118D12B3
:1001D4007F017E00E4FBEBC39512E5116480F874A3
:0E01E4008098500AAC0FAD101200300B80E86E
:0101F20022EA
:040234008A0A8B0B9C
:10023800120282AA0CEAD39400400D1201C0AC0A43
:08024800AD0B1202161A80ED45
:01025000228B
:10011500120282C3EA64809480400B7F2B12022A6C
:100125008A0D8B0E800E7F2D12022AC3E49BF50EDD
:10013500E49AF50DAA0CEAD39400400D1201C0AC67
:090145000DAD0E1202161A80ED38
:01014E00228E
:04014F008A0A8B0B82
:10015300120282AA0CEAD3940040297F101201C232
:10016300AC0AAD0BCFCDCFCECCCE120042EF540FA5
:10017300FEC3940AEE5004243080022437FF120297
:040183002A1A80D1E3
:010187002255
:040188008A0A8B0B49
:10018C00120282AA0CEAD394004028EA24FFFDE470
:10019C0034FFFC7F027E001201CCAC0AAD0BCFCD3C
:1001AC00CFCECCCE120042EF54012430FF12022AE3
:0301BC001A80D2D4
:0101BF00221D
:04025100EF4E6014F8
:10025500007508027509C7D509FDD508FAEF1F70A5
:02026500EB1E8E
:0302670080E8220A
:10000300BB010CE58229F582E5833AF583E02250B2
:1000130006E92582F8E622BBFE06E92582F8E222FC
:0D002300E58229F582E5833AF583E4932216
:10003000EF8DF0A4A8F0CF8CF0A428CE8DF0A42EE4
:02004000FE229E
:10004200BC000BBE0029EF8DF084FFADF022E4CCA2
:10005200F875F008EF2FFFEE33FEEC33FCEE9DEC6B
:10006200984005FCEE9DFE0FD5F0E9E4CEFD22EDB1
:10007200F8F5F0EE8420D21CFEADF075F008EF2FFB
:10008200FFED33FD4007985006D5F0F222C398FDEC
:050092000FD5F0EA2289
:00000001FF
