:0300000002025A9F
:0C025A00787FE4F6D8FD75812602014291
:10014200E4F508F509120237750E03AB09AA087D1A
:10015200017F011201EB0509E509700205087FE83C
:100162007E03120208750E03AB09AA087D017F0106
:050172001201EB80E129
:06024B00C2B68F80D2B4A0
:080251007F027EEFDEFEDFFC00
:010259002282
:0A026600C2B512024BC2B4020251ED
:1001CD00CFCDCFCECCCE1200427C007D0A120042A4
:0401DD00ED2430FFDE
:0A01E100D2B512024BC2B402025163
:10022100AE07BE0104ED148006BE0209ED243F4471
:0602310080FF12026622AC
:100237007F381202667F0C1202667F061202667F03
:040247000102026648
:0A027000AC03120221AF040201E109
:0601AA008B248A25892642
:1001B000120221E4FDAB24AA25A9268D82758300B5
:0C01C000120003FF60061201E10D80E94F
:0101CC002210
:0C0177007F0AEA24FFFDE434FFFC7E0058
:080183008E0F8F108C118D12FC
:10018B007F017E00E4FBEBC39512E5116480F874EC
:0E019B008098500AAC0FAD101200300B80E8B7
:0101A9002233
:0401EB008A0C8B0DE2
:1001EF00120221AA0EEAD39400400D120177AC0C33
:0801FF00AD0D1201CD1A80EDD7
:0102070022D4
:10009700120221C3EA64809480400B7F2B1201E196
:1000A7008A188B19800E7F2D1201E1C3E49BF51985
:1000B700E49AF518AA17EAD39400400D120177AC19
:0900C70018AD191201CD1A80EDEB
:0100D000220D
:0400D1008A1C8B1DDD
:1000D500120221AA1EEAD3940040297F1012017949
:1000E500AC1CAD1DCFCDCFCECCCE120042EF540F00
:1000F500FEC3940AEE5004243080022437FF120117
:04010500E11A80D1AA
:0101090022D3
:04010A008A218B2299
:10010E00120221AA23EAD394004028EA24FFFDE438
:10011E0034FFFC7F027E00120183AC21AD22CFCDD5
:10012E00CFCECCCE120042EF54012430FF1201E1AB
:03013E001A80D252
:01014100229B
:04020800EF4E601441
:10020C0000750A02750BC7D50BFDD50AFAEF1F70E6
:02021C00EB1ED7
:03021E0080E82253
:10000300BB010CE58229F582E5833AF583E02250B2
:1000130006E92582F8E622BBFE06E92582F8E222FC
:0D002300E58229F582E5833AF583E4932216
:10003000EF8DF0A4A8F0CF8CF0A428CE8DF0A42EE4
:02004000FE229E
:10004200BC000BBE0029EF8DF084FFADF022E4CCA2
:10005200F875F008EF2FFFEE33FEEC33FCEE9DEC6B
:10006200984005FCEE9DFE0FD5F0E9E4CEFD22EDB1
:10007200F8F5F0EE8420D21CFEADF075F008EF2FFB
:10008200FFED33FD4007985006D5F0F222C398FDEC
:050092000FD5F0EA2289
:00000001FF
