:0300000002049760
:0C049700787FE4F6D8FD75812E0204DEAB
:1008C80020200020202D20202D20200020203A202C
:0508D800203A20200081
:09091400070D160C19150100076E
:100523007B007A00790D120378E50DFB7A007519CB
:10053300027D017F01120865E50EFB7A0075190241
:100543007D047F01120865E50FFB7A007519027DB2
:10055300077F01120865E510FB7A007519027D011A
:100563007F02120865E511FB7A007519027D047F8D
:1005730002120865E512FB7A007519027D077F02F6
:0305830002086506
:10000E00E514B4020B050AE50A75F0068485F00ABC
:10001E00E514640360030200CF740D250AF806E5AB
:10002E000DD394634003E4F50DE50ED3940C400319
:10003E00750E01E50E64016023E50E6403601DE597
:10004E000E64056017E50E64076011E50E64086026
:10005E000BE50E640A6005E50EB40C09E50FD394AA
:10006E001F4040803BE50E64046011E50E6406609F
:10007E000BE50E64096005E50EB40B09E50FD3948C
:10008E001E4020801BE50EB40219E50D54037009C5
:10009E00E50FD3941D400C8007E50FD3941C40034D
:1000AE00750F01E510D394174003E4F510E511D355
:1000BE00943B4003E4F511E512D3943B4003E4F581
:1000CE0012E514640460030201A9740D250AF816E2
:1000DE00E50DC394005003750D63E50EC3940150F6
:1000EE0003750E0CE50E64016023E50E6403601DBE
:1000FE00E50E64056017E50E64076011E50E6408F1
:10010E00600BE50E640A6005E50EB40C13E50FC333
:10011E0094015003750F1FE50FD3941F405F805A53
:10012E00E50E64046011E50E6406600BE50E6409CD
:10013E006005E50EB40B13E50FC394015003750F64
:10014E001EE50FD3941E40358030E50E6402702DEF
:10015E00E50D54037013E50FC394015003750F1D85
:10016E00E50FD3941D40168011E50FC39401500383
:10017E00750F1CE50FD3941C4003750F01E510C3DA
:10018E0094005003751017E511C3940050037511B8
:10019E003BE512C39400500375123BE50A7014E55B
:1001AE000CB4010F7BFF7A0879C87D017F0112081C
:1001BE0006800FE50DFB7A007519027D017F011295
:1001CE000865E50AB40114E50CB4010F7BFF7A084B
:1001DE0079C87D047F01120806800FE50EFB7A00B8
:1001EE007519027D047F01120865E50AB40214E553
:1001FE000CB4010F7BFF7A0879C87D077F011208C6
:10020E0006800FE50FFB7A007519027D077F01123C
:10021E000865E50AB40314E50CB4010F7BFF7A08F8
:10022E0079C87D017F02120806800FE510FB7A0067
:10023E007519027D017F02120865E50AB40414E502
:10024E000CB4010F7BFF7A0879C87D047F02120877
:10025E0006800FE511FB7A007519027D047F0212EC
:10026E000865E50AB40512E50CB4010D7BFF7A08AA
:10027E0079C87D077F02020806E512FB7A00751920
:09028E00027D077F0212086522BF
:100586001208DD12000312089B7BFF7A0879CB7DE7
:10059600017F011208067BFF7A0879D47D017F026C
:1005A6001208067B007A00790D1204081205E98FFD
:1005B60014E514B4011BE50B7007750B01F50A80F1
:1005C60010E50BB4010BE4F50BFB7A00790D120470
:1005D60008E50B1460080470D312052380CE1200C0
:0305E6000E80C9BB
:03000B00020729C0
:09072900C0E0C0D075D000C0078B
:10073200758A18758CFC0509E50970020508C394D1
:10074200F4E50894014012750800750900E50C7083
:09075200047F0180027F008F0C7E
:07075B00D007D0D0D0E0323E
:06090500C2B68F80D2B4DF
:08090B007F027EEFDEFEDFFC3F
:0109130022C1
:0A091E00C2B5120905C2B402090BAC
:10082900CFCDCFCECCCE1203237C007D0A12032379
:04083900ED2430FF7B
:0A083D00D2B5120905C2B402090B7E
:1008B200AE07BE0104ED148006BE0209ED243F44DA
:0608C20080FF12091E2256
:1008DD007F3812091E7F0C12091E7F0612091E7F1A
:0408ED000102091EDD
:0A092800AC031208B2AF0402083D50
:060806008B158A1689170C
:10080C001208B2E4FDAB15AA16A9178D82758300E8
:0C081C001202B0FF600612083D0D80E9DA
:0108280022AD
:0C07D3007F0AEA24FFFDE434FFFC7E00F6
:0807DF008E1A8F1B8C1C8D1D6E
:1007E7007F017E00E4FBEBC3951DE51C6480F87474
:0E07F7008098500AAC1AAD1B1203110B80E85B
:0108050022D0
:040865008A178B184B
:100869001208B2AA19EAD39400400D1207D3AC17A3
:08087900AD181208291A80EDE8
:010881002254
:1006EF001208B2C3EA64809480400B7F2B12083D3E
:1006FF008A238B24800E7F2D12083DC3E49BF524A3
:10070F00E49AF523AA22EAD39400400D1207D3AC42
:09071F0023AD241208291A80ED13
:0107280022AE
:040762008A278B282F
:100766001208B2AA29EAD3940040297F101207D5AD
:10077600AC27AD28CFCDCFCECCCE120323EF540F6E
:10078600FEC3940AEE5004243080022437FF120878
:040796003D1A80D1B7
:01079A00223C
:04079B008A2C8B2DEC
:10079F001208B2AA2EEAD394004028EA24FFFDE4FF
:1007AF0034FFFC7F027E001207DFAC2CAD2DCFCDC6
:1007BF00CFCECCCE120323EF54012430FF12083DCD
:0307CF001A80D2BB
:0107D2002204
:05000300C292C2902230
:06064A008C188D19AB07AE
:10065000D292E4FD74017E00A805088005C333CE64
:1006600033CED8F9FFEBF582EF558224FF9291D279
:1006700090C2900DBD08DDE4FD74017E00A8050860
:100680008005C333CE33CED8F9FFE5185EFEE519F9
:100690005F4E24FF9291D290C2900DBD08DBC292B2
:0106A0002237
:0206A100AD07A3
:1006A300E4F9430501D292FB74017E00A80308809C
:1006B30005C333CE33CED8F9FFEDF582EF5582244F
:1006C300FF9291C290D2900BBB08DDE4FBD290C2A3
:1006D3009030910D7401A803088002C333D8FC4203
:0B06E300010BBB08E8C292C291AF01FE
:0106EE0022E9
:0A084700AB15AA16A9171202B0FFA4
:10085100EF75F00A84FEEF75F00A84AFF0EEC45430
:03086100F02FFF76
:010864002271
:0308F1001206A14B
:1008F400EFC4540FFEEF540FFFEE75F00AA42FFF60
:0109040022D0
:100408008B158A168917E4FDFC7F8E12064AAB15F8
:10041800AA16A917120297FF120851EFFD7F8C1236
:10042800064A900001120847EFFD7F8812064A909D
:100438000002120847EFFD7F8612064AAB15AA167E
:10044800A91790000312084DEFFD7F8412064AABEE
:1004580015AA16A91790000412084DEFFD7F821205
:10046800064AAB15AA16A91790000512084DEFFD0C
:100478007F8012064AAB15AA16A917900006120823
:0F0488004DEFFD7F8A12064A7D807F8E02064A65
:060378008B158A1689179F
:10037E007F8C1208F1AB15AA16A917EF1202DD7FBA
:10038E00881208F1AB15AA16A917900001EF1202F8
:10039E00EF7F861206A11208F4AB15AA16A91790C4
:1003AE000002EF1202EF7F841206A11208F4AB15C1
:1003BE00AA16A917900003EF1202EF7F821206A170
:1003CE001208F4AB15AA16A917900004EF1202EF4B
:1003DE007F801206A11208F4AB15AA16A917900079
:1003EE0005EF1202EF7F8A1206A11208F4AB15AACE
:0A03FE0016A917900006EF0202EFA7
:04088200EF4E6014C1
:10088600007516027517C7D517FDD516FAEF1F7036
:02089600EB1E57
:0308980080E822D3
:1005E900E4F51520B0137F14FE12088230B0FD7FA8
:1005F900147E0012088275150120B1147F147E0043
:1006090012088230B1FD7F147E001208827515022E
:1006190020B2147F147E0012088230B2FD7F147E4E
:100629000012088275150320B3147F147E00120886
:100639008230B3FD7F147E00120882751504AF1550
:01064900228E
:10089B005389F0438901758A66758CFCC28DD28CA5
:0708AB00D2A9D2AFC2B922AD
:1004A300020586E493A3F8E493A34003F68001F2E4
:1004B30008DFF48029E493A3F85407240CC8C3335A
:1004C300C4540F4420C8834004F456800146F6DF29
:1004D300E4800B0102040810204080900914E47E9C
:1004E300019360BCA3FF543F30E509541FFEE4931E
:1004F300A360010ECF54C025E060A840B8E493A3E5
:10050300FAE493A3F8E493A3C8C582C8CAC583CA0F
:10051300F0A3C8C582C8CAC583CADFE9DEE780BEC7
:01091D0000D9
:10029700BB010689828A83E0225002E722BBFE0265
:0902A700E32289828A83E4932298
:1002B000BB010CE58229F582E5833AF583E0225003
:1002C00006E92582F8E622BBFE06E92582F8E2224D
:0D02D000E58229F582E5833AF583E4932267
:1002DD00BB010689828A83F0225002F722BBFE0100
:0202ED00F322FA
:1002EF00F8BB010DE58229F582E5833AF583E8F045
:1002FF00225006E92582C8F622BBFE05E92582C8F1
:02030F00F222D8
:10031100EF8DF0A4A8F0CF8CF0A428CE8DF0A42E00
:02032100FE22BA
:10032300BC000BBE0029EF8DF084FFADF022E4CCBE
:10033300F875F008EF2FFFEE33FEEC33FCEE9DEC87
:10034300984005FCEE9DFE0FD5F0E9E4CEFD22EDCD
:10035300F8F5F0EE8420D21CFEADF075F008EF2F17
:10036300FFED33FD4007985006D5F0F222C398FD08
:050373000FD5F0EA22A5
:00000001FF
