:030000000203B543
:0C03B500787FE4F6D8FD7581310203FC6E
:1005E7005243543A0020202D20202D202000202087
:0E05F7003A20203A202000160C1900000001C6
:06069C00013000013100F5
:1001DA0078087C007D007BFF7A0579FE7E007F0728
:1001EA001200D31206747BFF7A0579E7E4FDFF1249
:1001FA0005C41206CF7BFF7A0579EC7D017F0112D7
:10020A0005C47BFF7A0579F57D017F021205C47B5F
:10021A00007A0079081203267B007A007908120214
:10022A0096E508FB7A007513027D017F01120641EB
:10023A00E509FB7A007513027D047F01120641E588
:10024A000AFB7A007513027D077F01120641E50B4E
:10025A00FB7A007513027D017F02120641E50CFB51
:10026A007A007513027D047F02120641E50DFB7ABE
:10027A00007513027D077F02120641E50EFB7A0024
:0C028A007513017D0A7F02120641808C72
:0606AC00C2B68F80D2B43B
:0806B2007F027EEFDEFEDFFC9B
:0106BA00221D
:0A06BB00C2B51206ACC2B40206B2CA
:10060500CFCDCFCECCCE1201857C007D0A120185DF
:04061500ED2430FFA1
:0A061900D2B51206ACC2B40206B25C
:10065E00AE07BE0104ED148006BE0209ED243F4430
:06066E0080FF1206BB2212
:100674007F381206BB7F0C1206BB7F061206BB7FB7
:04068400010206BBAE
:0A06C500AC0312065EAF0402061932
:0605C4008B0F8A10891163
:1005CA0012065EE4FDAB0FAA10A9118D8275830095
:0C05DA00120112FF60061206190D80E9E4
:0105E60022F2
:0C0591007F0AEA24FFFDE434FFFC7E003A
:08059D008E148F158C168D17CA
:1005A5007F017E00E4FBEBC39517E5166480F874C4
:0E05B5008098500AAC14AD151201730B80E84B
:0105C3002215
:040641008A118B127D
:1006450012065EAA13EAD39400400D120591AC116F
:08065500AD121206051A80ED3A
:01065D00227A
:1004E60012065EC3EA64809480400B7F2B120619C5
:1004F6008A1D8B1E800E7F2D120619C3E49BF51EE6
:10050600E49AF51DAA1CEAD39400400D120591AC9D
:090516001DAD1E1206051A80ED50
:01051F0022B9
:040520008A288B2971
:1005240012065EAA2AEAD3940040297F101205938A
:10053400AC28AD29CFCDCFCECCCE120185EF540F50
:10054400FEC3940AEE5004243080022437FF1206BE
:04055400191A80D11F
:010558002280
:040559008A2D8B2E2E
:10055D0012065EAA2FEAD394004028EA24FFFDE498
:10056D0034FFFC7F027E0012059DAC2DAD2ECFCD4C
:10057D00CFCECCCE120185EF54012430FF120619D7
:03058D001A80D2FF
:010590002248
:0906A200071F130B100C3B370677
:0506CF00C292C290225E
:060441008C128D13AB07C5
:10044700D292E4FD74017E00A805088005C333CE6F
:1004570033CED8F9FFEBF582EF558224FF9291D284
:1004670090C2900DBD08DDE4FD74017E00A805086B
:100477008005C333CE33CED8F9FFE5125EFEE51310
:100487005F4E24FF9291D290C2900DBD08DBC292BD
:010497002242
:02049800AD07AE
:10049A00E4F9430501D292FB74017E00A8030880A7
:1004AA0005C333CE33CED8F9FFEDF582EF5582245A
:1004BA00FF9291C290D2900BBB08DDE4FBD290C2AE
:1004CA009030910D7401A803088002C333D8FC420E
:0B04DA00010BBB08E8C292C291AF0109
:0104E50022F4
:0A062300AB0FAA10A911120112FF7B
:10062D00EF75F00A84FEEF75F00A84AFF0EEC45456
:03063D00F02FFF9C
:010640002297
:03068800120498C1
:10068B00EFC4540FFEEF540FFFEE75F00AA42FFFCB
:01069B00223C
:100326008B0F8A108911E4FDFC7F8E120441AB0FFE
:10033600AA10A9111200F9FF12062DEFFD7F8C12EB
:100346000441900001120623EFFD7F8812044190BC
:100356000002120623EFFD7F86120441AB0FAA109E
:10036600A911900003120629EFFD7F84120441AB08
:100376000FAA10A911900004120629EFFD7F821220
:100386000441AB0FAA10A911900005120629EFFD32
:100396007F80120441AB0FAA10A911900006120625
:0F03A60029EFFD7F8A1204417D807F8E02044182
:060296008B0F8A10891194
:10029C007F8C120688AB0FAA10A911EF12013F7FB9
:1002AC0088120688AB0FAA10A911900001EF120159
:1002BC00517F8612049812068BAB0FAA10A91190CD
:1002CC000002EF1201517F8412049812068BAB0FBF
:1002DC00AA10A911900003EF1201517F8212049809
:1002EC0012068BAB0FAA10A911900004EF1201514A
:1002FC007F8012049812068BAB0FAA10A9119000E4
:10030C0005EF1201517F8A12049812068BAB0FAACB
:0A031C0010A911900006EF02015134
:1003C1000201DAE493A3F8E493A34003F68001F277
:1003D10008DFF48029E493A3F85407240CC8C3333D
:1003E100C4540F4420C8834004F456800146F6DF0C
:1003F100E4800B010204081020408090069CE47EFA
:10040100019360BCA3FF543F30E509541FFEE49300
:10041100A360010ECF54C025E060A840B8E493A3C7
:10042100FAE493A3F8E493A3C8C582C8CAC583CAF2
:10043100F0A3C8C582C8CAC583CADFE9DEE780BEAA
:0106AB00004E
:10000300E709F608DFFA8046E709F208DFFA803EDF
:1000130088828C83E709F0A3DFFA8032E309F608CC
:10002300DFFA8078E309F208DFFA807088828C8334
:10003300E309F0A3DFFA806489828A83E0A3F608E8
:10004300DFFA805889828A83E0A3F208DFFA804CC2
:1000530080D280FA80C680D4806980F28033801099
:1000630080A680EA809A80A880DA80E280CA803302
:1000730089828A83ECFAE493A3C8C582C8CCC5837A
:10008300CCF0A3C8C582C8CCC583CCDFE9DEE7804A
:100093000D89828A83E493A3F608DFF9ECFAA9F0C9
:1000A300EDFB2289828A83ECFAE0A3C8C582C8CC1F
:1000B300C583CCF0A3C8C582C8CCC583CCDFEADE38
:1000C300E880DB89828A83E493A3F208DFF980CC9A
:1000D30088F0EF60010E4E60C388F0ED2402B40493
:1000E3000050B9F582EB2402B4040050AF2323453A
:0600F3008223900053730C
:1000F900BB010689828A83E0225002E722BBFE0205
:09010900E32289828A83E4932237
:10011200BB010CE58229F582E5833AF583E02250A2
:1001220006E92582F8E622BBFE06E92582F8E222EC
:0D013200E58229F582E5833AF583E4932206
:10013F00BB010689828A83F0225002F722BBFE019F
:02014F00F32299
:10015100F8BB010DE58229F582E5833AF583E8F0E4
:10016100225006E92582C8F622BBFE05E92582C890
:02017100F22278
:10017300EF8DF0A4A8F0CF8CF0A428CE8DF0A42EA0
:02018300FE225A
:10018500BC000BBE0029EF8DF084FFADF022E4CC5E
:10019500F875F008EF2FFFEE33FEEC33FCEE9DEC27
:1001A500984005FCEE9DFE0FD5F0E9E4CEFD22ED6D
:1001B500F8F5F0EE8420D21CFEADF075F008EF2FB7
:1001C500FFED33FD4007985006D5F0F222C398FDA8
:0501D5000FD5F0EA2245
:00000001FF
