:03000000020003F8
:0C000300787FE4F6D8FD75810A02004AFF
:0300D300010A001F
:0C00BF001200A8AF0A1200CB050A80F75F
:04008F00EF4E6014BC
:10009300007508027509C7D509FDD508FAEF1F7069
:0200A300EB1E52
:0300A50080E822CE
:1000A80053877F75985053890F438920758BFA754C
:0700B8008DFAC2ABD28E22CB
:0800CB008F993099FDC29922C2
:10000F000200BFE493A3F8E493A34003F68001F248
:10001F0008DFF48029E493A3F85407240CC8C333F2
:10002F00C4540F4420C8834004F456800146F6DFC1
:10003F00E4800B01020408102040809000D3E47E7E
:10004F00019360BCA3FF543F30E509541FFEE493B6
:10005F00A360010ECF54C025E060A840B8E493A37D
:10006F00FAE493A3F8E493A3C8C582C8CAC583CAA8
:10007F00F0A3C8C582C8CAC583CADFE9DEE780BE60
:0100D6000029
:00000001FF
