:0300000002000EED
:0C000E00787FE4F6D8FD75810E020055E5
:03000300010B01ED
:100165001201F27508191201048F09E5096401707D
:100175002A050BE50BB40503750B01E50BB401036B
:10018500750819E50BB40203750832E50BB40303D2
:1001950075084BE50BB40403750864E50BFD7C009D
:0901A5007F017E0012009A80BD6A
:03000B000201AE41
:1001AE00C0E0C0F0C0D0758AA4758CFF050AE50AC0
:1001BE0075F0648485F00AE50AC395085004D2A050
:0B01CE008002C2A0D0D0D0F0D0E03200
:0401D900EF4E601471
:1001DD0000750D02750EC7D50EFDD50DFAEF1F700A
:0201ED00EB1E07
:0301EF0080E82283
:10010400E4F50C20B0137F14FE1201D930B0FD7F4A
:10011400147E001201D9750C0120B1147F147E00E5
:100124001201D930B1FD7F147E001201D9750C0281
:1001340020B2147F147E001201D930B2FD7F147EE8
:10014400001201D9750C0320B3147F147E00120130
:10015400D930B3FD7F147E001201D9750C04AF0CA5
:010164002278
:0A0209003F065B4F666D7D077F6FB7
:10009A00C3EF9401EE64809480502AEF9408EE64D2
:1000AA008094804020EC648094805019ED9409EC8F
:1000BA0064809480400FD2A77580FFC2A7D2A6E4BD
:1000CA00F580C2A6227580FFD2A7EF14FF7401A89B
:1000DA0007088002C333D8FCF4F580C2A7E4F58090
:1000EA00D2A674092DF58274023CF583E493F58057
:0A00FA00C2A67F057E001201D92284
:1001F2005389F0438901758AA4758CFFC28DD28C14
:07020200D2A9D2AFC2B9225C
:10001A00020165E493A3F8E493A34003F68001F296
:10002A0008DFF48029E493A3F85407240CC8C333E7
:10003A00C4540F4420C8834004F456800146F6DFB6
:10004A00E4800B0102040810204080900003E47E43
:10005A00019360BCA3FF543F30E509541FFEE493AB
:10006A00A360010ECF54C025E060A840B8E493A372
:10007A00FAE493A3F8E493A3C8C582C8CAC583CA9D
:10008A00F0A3C8C582C8CAC583CADFE9DEE780BE55
:0100060000F9
:00000001FF
