:030000000200A259
:0C00A200787FE4F6D8FD7581280200E9A3
:10035A00436C6F636B3A0020203A20203A20200039
:0D037900011A39011C3B011B17021800007E
:10012E001203461203197BFF7A03795A7D017F0170
:10013E001202A27BFF7A0379617D017F021202A275
:10014E00E51BFB7A00750C027D017F021202E3E5CE
:10015E001CFB7A00750C027D047F021202E3E51A85
:0F016E00FB7A00750C027D077F021202E380D13D
:03000B0002017D72
:04017D00C0E0C0D04E
:10018100758A66758CFC0519E51970020518C3940A
:10019100E8E51894034027751800751900051AE55C
:1001A1001A943C4019751A00051CE51C943C400E3C
:0E01B100751C00051BE51B94184003751B0010
:0501BF00D0D0D0E032B9
:04030000EF4E601448
:10030400007527027528C7D528FDD527FAEF1F7079
:02031400EB1EDE
:0303160080E8225A
:06036A00C2B68F80D2B480
:080370007F027EEFDEFEDFFCE0
:010378002262
:0A038700C2B512036AC2B40203708B
:1002C500CFCDCFCECCCE12004D7C007D0A12004D95
:0402D500ED2430FFE5
:0A02D900D2B512036AC2B40203702A
:10033000AE07BE0104ED148006BE0209ED243F4461
:0603400080FF120387227A
:100346007F381203877F0C1203877F061203877F8D
:040356000102038716
:0A039100AC03120330AF040202D9DE
:0602A2008B088A09890A9D
:1002A800120330E4FDAB08AA09A90A8D8275830000
:0C02B80012000EFF60061202D90D80E952
:0102C4002217
:0C026F007F0AEA24FFFDE434FFFC7E005F
:08027B008E0D8F0E8C0F8D100B
:100283007F017E00E4FBEBC39510E50F6480F874F7
:0E0293008098500AAC0DAD0E12003B0B80E8B7
:0102A100223A
:0402E3008A0A8B0BED
:1002E700120330AA0CEAD39400400D12026FAC0A35
:0802F700AD0B1202C51A80EDE7
:0102FF0022DC
:1001C400120330C3EA64809480400B7F2B1202D95F
:1001D4008A168B17800E7F2D1202D9C3E49BF51764
:1001E400E49AF516AA15EAD39400400D12026FACF6
:0901F40016AD171202C51A80EDC8
:0101FD0022DF
:0401FE008A1F8B20A9
:10020200120330AA21EAD3940040297F101202710E
:10021200AC1FAD20CFCDCFCECCCE12004DEF540FC0
:10022200FEC3940AEE5004243080022437FF1202E7
:04023200D91A80D184
:0102360022A5
:040237008A248B2565
:10023B00120330AA26EAD394004028EA24FFFDE4F7
:10024B0034FFFC7F027E0012027BAC24AD25CFCDA8
:10025B00CFCECCCE12004DEF54012430FF1202D979
:03026B001A80D224
:01026E00226D
:100319005389F0438901758A66758CFCC28DD28C2C
:07032900D2A9D2AFC2B92234
:1000AE0002012EE493A3F8E493A34003F68001F239
:1000BE0008DFF48029E493A3F85407240CC8C33353
:1000CE00C4540F4420C8834004F456800146F6DF22
:1000DE00E4800B0102040810204080900379E47E36
:1000EE00019360BCA3FF543F30E509541FFEE49317
:1000FE00A360010ECF54C025E060A840B8E493A3DE
:10010E00FAE493A3F8E493A3C8C582C8CAC583CA08
:10011E00F0A3C8C582C8CAC583CADFE9DEE780BEC0
:010386000076
:10000E00BB010CE58229F582E5833AF583E02250A7
:10001E0006E92582F8E622BBFE06E92582F8E222F1
:0D002E00E58229F582E5833AF583E493220B
:10003B00EF8DF0A4A8F0CF8CF0A428CE8DF0A42ED9
:02004B00FE2293
:10004D00BC000BBE0029EF8DF084FFADF022E4CC97
:10005D00F875F008EF2FFFEE33FEEC33FCEE9DEC60
:10006D00984005FCEE9DFE0FD5F0E9E4CEFD22EDA6
:10007D00F8F5F0EE8420D21CFEADF075F008EF2FF0
:10008D00FFED33FD4007985006D5F0F222C398FDE1
:05009D000FD5F0EA227E
:00000001FF
