:030000000207698B
:0C076900787FE4F6D8FD7581250204625B
:0D074F0054656D70657261747572653A00D5
:10046200E4F50BF50AF509F50812075C7FE87E034F
:100472001206BA12071A7BFF7A07794F7D017F01B4
:1004820012062512075C1205F98F0B8E0A8D098C54
:1004920008E4FFFEFDFCAB0BAA0AA909A808120199
:1004A200A9501E7B2D7D017F0212078AAF0BAE0A77
:1004B200AD09AC081202228F0B8E0A8D098C0880BE
:1004C200097B2B7D017F0212078AAF0BAE0AAD09B1
:1004D200AC08120271AB07AA067510037D027F02F7
:1004E2001206667B2E7D057F0212078A7F007E4000
:1004F2007D1C7C46AB0BAA0AA909A80812000312AC
:100502000271E47B107A27F9F81203C27510047D98
:09051200067F0212066602048550
:0406BA00EF4E60148B
:1006BE0000750C02750DC7D50DFDD50CFAEF1F7028
:0206CE00EB1E21
:0306D00080E8229D
:06074000C2B68F80D2B4A6
:080746007F027EEFDEFEDFFC06
:01074E002288
:0A078000C2B5120740C2B4020746DA
:10064800CFCDCFCECCCE1203317C007D0A12033140
:04065800ED2430FF5E
:0A065C00D2B5120740C2B4020746EF
:10070400AE07BE0104ED148006BE0209ED243F4489
:0607140080FF12078022A5
:10071A007F381207807F0C1207807F061207807FBE
:04072A000102078041
:0A078A00AC03120704AF0402065C82
:060625008B0C8A0D890E0A
:10062B00120704E4FDAB0CAA0DA90E8D8275830095
:0C063B001202F2FF600612065C0D80E95E
:010647002290
:0C05C6007F0AEA24FFFDE434FFFC7E0005
:0805D2008E118F128C138D14A1
:1005DA007F017E00E4FBEBC39514E5136480F87495
:0E05EA008098500AAC11AD1212031F0B80E86E
:0105F80022E0
:040666008A0E8B0F5E
:10066A00120704AA10EAD39400400D1205C6AC0E74
:08067A00AD0F1206481A80EDD5
:010682002255
:10051B00120704C3EA64809480400B7F2B12065CA5
:10052B008A1A8B1B800E7F2D12065CC3E49BF51B76
:10053B00E49AF51AAA19EAD39400400D1205C6AC39
:09054B001AAD1B1206481A80EDDE
:010554002284
:040555008A1E8B1F50
:10055900120704AA20EAD3940040297F101205C883
:10056900AC1EAD1FCFCDCFCECCCE120331EF540F81
:10057900FEC3940AEE5004243080022437FF120689
:040589005C1A80D1A7
:01058D00224B
:04058E008A238B240D
:10059200120704AA25EAD394004028EA24FFFDE4C6
:1005A20034FFFC7F027E001205D2AC23AD24CFCDF6
:1005B200CFCECCCE120331EF54012430FF12065CB1
:0305C2001A80D2CA
:0105C5002213
:0B077500EF1FAC0670011E4C70F62256
:1006A000D2A2C2A27FE3DFFED2A27F1DDFFEA2A202
:0906B000E433FE7FE3DFFEAF0638
:0106B900221E
:10072E00C2A27E02DEFEEF24FF92A27E14DEFED275
:01073E00A218
:01073F002297
:1006EC00C2A27F01DFFED2A27F01DFFEA2A2E43311
:0706FC00FE7F14DFFEAF06D4
:0107030022D3
:0206D300AD0771
:1006D500E4FC7401A804088002C333D8FC5DFF1252
:0606E500072E0CBC08EC1E
:0106EB0022EC
:10068300E4FDFC1206ECEF600D7401A8040880027F
:0C069300C333D8FC42050CBC08E9AF05DD
:01069F002238
:0D075C001206A07FCC1206D37F440206D304
:1005F9001206A07FCC1206D37FBE1206D312068341
:100609008F0C120683EFFEE50CFFFDAC06EC12021F
:0B06190038E4FBFA7980784112010CF4
:0106240022B3
:10000300EC4D6011E8497017ED33EC3304600DE4F7
:10001300FCFFFEFD22E933E8330470F80202DD122F
:1000230002A858046009E4CC248150062850090230
:1000330002E72840030202E4C0E0EB4A7044B980BF
:1000430006D0E0FB0202D3EF4E701CBD8008EBFF2D
:10005300EAFEE9FD80EBE98DF0A4FEE5F00200EC99
:10006300E9CDF9EAFEEBFFEF89F0A4FCE5F0CE89D8
:10007300F0A42EFFE435F0CD89F0A42DFEE435F095
:100083008067EF4E7005BD80D780C3EF8BF0A4ACC3
:10009300F0EE8BF0A42CFCE435F0F8EF8AF0A42CFE
:1000A300E5F038FCE433CB8DF0A42CFCE5F03BF811
:1000B300EE8AF0A42CFCE5F038F8E433CF89F0A401
:1000C3002CFCE5F038CF3400CE89F0A42FFFE5F007
:1000D3003EFEE433C98DF0A42EFEE5F039CD8AF05F
:1000E300A42FFFE5F03EFEE43DFD33D0E0FB5007D7
:1000F3000BBB000F0202E7EC2CFCEF33FFEE33FEE9
:06010300ED33FD0202BF16
:100109000202E7EC5D046005E8590470030202DDB0
:100119001202A8580460F6EC4860F2EC7004FDFE87
:10012900FF22C860DB2481C85009C39860025006C9
:100139000202E49850CAF582E9294B4A7005AB825C
:100149000202D375F0007C1A7880C3EF9BEE9AED1A
:1001590099400DC3EF9BFFEE9AFEED99FDE842F041
:10016900DC23ACF0D0E0FFD0E0FED0E0FDAB822094
:10017900E7101BEB60BAEC2CFCEF33FFEE33FEED1E
:1001890033FD0202BFE803F830E705C0F075F0005F
:10019900EF2FFFEE33FEED33FD40B830E7C280AA02
:1001A90074F8CC6480CCC86480C8F58204604FC3FD
:1001B900EB9FF5F0EA9E42F0E99D42F0E89C45F09C
:1001C900603C501DE5825FFFE582D313CB5BCBF426
:1001D9002B5582FB50280ABA002409B9002008804F
:1001E9001DE5825BFBE582D313CF5FCFF4C3132FE9
:1001F9005582FF50090EBE00050DBD00010CC3EB71
:100209009FF5F0EA9E42F0E99D42F0E89C45F060D6
:0902190007CC4820E701B3EC22F8
:10022200ED33EC33600A047003BD8004ECB2E7FCEA
:0102320022A9
:1002330075F020800E75F010800575F0087D007E46
:10024300007F003392D530D503120454EC334010B1
:10025300EF33FFEE33FEED33FDEC33FCD5F0ED224F
:0E026300E5F0247EA2D513CC92E7CDCEFF228B
:10027100EDD2E7CD33EC3392D524814006E4FFFE85
:10028100FDFC22FCE4CFCECDCC24E0501174FF80E4
:10029100EDC3CC13CCCD13CDCE13CECF13CF047081
:0702A100F030D5DE02045429
:1002A800E9D2E7C933E833F892D5EDD2E7CD33EC9C
:0702B80033FC5002B2D52215
:1002BF00EC30E7100FBF000C0EBE00080DBD0004A0
:1002CF000BEB6014A2D5EB13FCED92E7FD2274FF4C
:1002DF00FCFDFEFF22E480F8A2D574FF13FC7D80A5
:0302EF00E480EFB9
:1002F200BB010CE58229F582E5833AF583E02250C1
:1003020006E92582F8E622BBFE06E92582F8E2220A
:0D031200E58229F582E5833AF583E4932224
:10031F00EF8DF0A4A8F0CF8CF0A428CE8DF0A42EF2
:02032F00FE22AC
:10033100BC000BBE0029EF8DF084FFADF022E4CCB0
:10034100F875F008EF2FFFEE33FEEC33FCEE9DEC79
:10035100984005FCEE9DFE0FD5F0E9E4CEFD22EDBF
:10036100F8F5F0EE8420D21CFEADF075F008EF2F09
:10037100FFED33FD4007985006D5F0F222C398FDFA
:050381000FD5F0EA2297
:1003860075F008758200EF2FFFEE33FECD33CDCC2E
:1003960033CCC58233C5829BED9AEC99E5829840B1
:1003A6000CF582EE9BFEED9AFDEC99FC0FD5F0D68E
:1003B600E4CEFBE4CDFAE4CCF9A88222B800C1B9B8
:1003C6000059BA002DEC8BF084CFCECDFCE5F0CBF6
:1003D600F97818EF2FFFEE33FEED33FDEC33FCEB2F
:1003E60033FB10D703994004EB99FB0FD8E5E4F9EA
:1003F600FA227818EF2FFFEE33FEED33FDEC33FCD7
:10040600C933C910D7059BE99A4007EC9BFCE99ACA
:10041600F90FD8E0E4C9FAE4CCFB2275F010EF2F0F
:10042600FFEE33FEED33FDCC33CCC833C810D7070F
:100436009BEC9AE899400AED9BFDEC9AFCE899F84A
:0E0446000FD5F0DAE4CDFBE4CCFAE4C8F922DD
:0E045400C3E49FFFE49EFEE49DFDE49CFC22B9
:00000001FF
