:030000000200AC4F
:0C00AC00787FE4F6D8FD75810902006D34
:10006D007D057C007F027E001200037F057E00125D
:10007D0000937D047C007F037E001200037F057ECC
:06008D000012009380DA6E
:04009300EF4E6014B8
:10009700007508027509C7D509FDD508FAEF1F7065
:0200A700EB1E4E
:0300A90080E822CA
:0A00B8003F065B4F666D7D077F6F0A
:10000300C3EF9401EE64809480502AEF9408EE6469
:100013008094804020EC648094805019ED9409EC26
:1000230064809480400FD2A77580FFC2A7D2A6E454
:10003300F580C2A6227580FFD2A7EF14FF7401A832
:1000430007088002C333D8FCF4F580C2A7E4F58027
:10005300D2A674B82DF58274003CF583E493F58041
:0A006300C2A67F057E001200932262
:00000001FF
