:0300000002009D5E
:0C009D00787FE4F6D8FD75810C02000E9F
:10000E00120086750B19E4F50885080B7F0A7E0031
:10001E0012006D0508E508C3946440ED750864E5AB
:10002E0008D3940040E085080B7F0A7E0012006D15
:04003E00150880EB36
:03000B00020042AE
:10004200C0E0C0F0C0D0758AA4758CFF050CE50C29
:1000520075F0648485F00CE50CC3950B5004D291C5
:0B0062008002C291D0D0D0F0D0E0327C
:04006D00EF4E6014DE
:1000710000750902750AC7D50AFDD509FAEF1F7087
:02008100EB1E74
:0300830080E822F0
:100086005389F0438901758AA4758CFFC28DD28C81
:07009600D2A9D2AFC2B922CA
:00000001FF
