:0300000002000EED
:0C000E00787FE4F6D8FD75810E020055E5
:0A01B600010A00010B00020800001E
:100188005389F0438901C28DD28C758CFC758A170E
:07019800D2A9D2AFC2B922C7
:10014F0012019F7590FE12009A8F0AE50A60F7B4AC
:10015F0001F4050BE50BC3940240EBE4F50B80E6CD
:03000B000200FBF5
:0B00FB00C0E0C0D075D000C000C007FE
:10010600758CFC758A170509E50970020508C39404
:10011600E8E50894034029750800750900E50B70A9
:100126000DAF907801EF08800123D8FDF590E50B1F
:10013600B4010DAF907801EF08800103D8FDF5906A
:09014600D007D000D0D0D0E03287
:10019F005389F0438901758A66758CFCC28DD28CA8
:0701AF00D2A9D2AFC2B922B0
:10009A00E4F50C20B0137F14FE12016F30B0FD7F1F
:1000AA00147E0012016F750C0120B1147F147E00BA
:1000BA0012016F30B1FD7F147E0012016F750C02C0
:1000CA0020B2147F147E0012016F30B2FD7F147EBD
:1000DA000012016F750C0320B3147F147E00120105
:1000EA006F30B3FD7F147E0012016F750C04AF0CE4
:0100FA0022E3
:04016F00EF4E6014DB
:1001730000750D02750EC7D50EFDD50DFAEF1F7074
:02018300EB1E71
:0301850080E822ED
:10001A0002014FE493A3F8E493A34003F68001F2AC
:10002A0008DFF48029E493A3F85407240CC8C333E7
:10003A00C4540F4420C8834004F456800146F6DFB6
:10004A00E4800B01020408102040809001B6E47E8F
:10005A00019360BCA3FF543F30E509541FFEE493AB
:10006A00A360010ECF54C025E060A840B8E493A372
:10007A00FAE493A3F8E493A3C8C582C8CAC583CA9D
:10008A00F0A3C8C582C8CAC583CADFE9DEE780BE55
:0101C000003E
:00000001FF
