:030000000200E417
:0C00E400787FE4F6D8FD75810C02004521
:10007E000000000000000000FF080808FF000E1539
:10008E00151508007E0102007E0102000E11110EF0
:10009E00007D0000000000000000000000000000D5
:10004500E4F509F50AE4F508E508250990007E932D
:10005500FDAF081200030508E508D3940840E9053B
:100065000AE50AD3946440DDE4F50A0509E509D3F8
:09007500942040D1E4F50980CC8F
:1000AE00C2B6E4FEC2B5EF30E004D2B48002C2B4F0
:0C00BE00D2B5EFC313FF0EBE08EAD2B6A5
:0100CA002213
:10000300C2B67401A807088002C333D8FCF4FFE426
:10001300FEC2B5EF30E004D2B48002C2B4D2B5EF71
:10002300C313FF0EBE08EAE4FEC2B5ED30E004D20E
:10003300B48002C2B4D2B5EDC313FD0EBE08EAD23A
:01004300B606
:010044002299
:0400CB00EF4E601480
:1000CF0000750B02750CC7D50CFDD50BFAEF1F7021
:0200DF00EB1E16
:0300E10080E82292
:00000001FF
