:0300000002036098
:0C036000787FE4F6D8FD7581250202F3D9
:1002F300E4F50812033D1200038F08EFFB7A007543
:0B0303000D027D017F011202D680EB8D
:04030E00EF4E60143A
:1003120000750A02750BC7D50BFDD50AFAEF1F70DF
:02032200EB1ED0
:0303240080E8224C
:06035100C2B68F80D2B499
:080357007F027EEFDEFEDFFCF9
:01035F00227B
:0A036C00C2B5120351C2B4020357D8
:1002B800CFCDCFCECCCE1201627C007D0A12016276
:0402C800ED2430FFF2
:0A02CC00D2B5120351C2B402035769
:10032700AE07BE0104ED148006BE0209ED243F446A
:0603370080FF12036C229E
:10033D007F3812036C7F0C12036C7F0612036C7FE7
:04034D000102036C3A
:0A037600AC03120327AF040202CC0F
:060295008B238A24892559
:10029B00120327E4FDAB23AA24A9258D82758300C5
:0C02AB00120123FF60061202CC0D80E956
:0102B7002224
:0C0262007F0AEA24FFFDE434FFFC7E006C
:08026E008E0E8F0F8C108D1114
:100276007F017E00E4FBEBC39511E5106480F87402
:0E0286008098500AAC0EAD0F1201500B80E8AC
:010294002247
:0402D6008A0B8B0CF8
:1002DA00120327AA0DEAD39400400D120262AC0B56
:0802EA00AD0C1202B81A80ED00
:0102F20022E9
:1001B700120327C3EA64809480400B7F2B1202CC82
:1001C7008A178B18800E7F2D1202CCC3E49BF5187B
:1001D700E49AF517AA16EAD39400400D120262AC0E
:0901E70017AD181202B81A80EDE0
:0101F00022EC
:0401F1008A1B8B1CBE
:1001F500120327AA1DEAD3940040297F1012026436
:10020500AC1BAD1CCFCDCFCECCCE120162EF540FBF
:10021500FEC3940AEE5004243080022437FF1202F4
:04022500CC1A80D19E
:0102290022B2
:04022A008A208B217A
:10022E00120327AA22EAD394004028EA24FFFDE411
:10023E0034FFFC7F027E0012026EAC20AD21CFCDCA
:10024E00CFCECCCE120162EF54012430FF1202CC7D
:03025E001A80D231
:01026100227A
:1000030075B0FFC2B420B0147F147E0012030E300B
:10001300B0FD7F147E0012030E75090120B1147F19
:10002300147E0012030E30B1FD7F147E0012030E06
:1000330075090420B2147F147E0012030E30B2FD42
:100043007F147E0012030E75090720B3147F147EFC
:100053000012030E30B3FD7F147E0012030E7509E8
:100063000AC2B520B0147F147E0012030E30B0FD17
:100073007F147E0012030E75090220B1147F147ED3
:100083000012030E30B1FD7F147E0012030E7509BA
:100093000520B2147F147E0012030E30B2FD7F14CC
:1000A3007E0012030E75090820B3147F147E00121C
:1000B300030E30B3FD7F147E0012030E75090BC2CD
:1000C300B620B0147F147E0012030E30B0FD7F14EF
:1000D3007E0012030E75090320B1147F147E0012F3
:1000E300030E30B1FD7F147E0012030E7509062046
:1000F300B2147F147E0012030E30B2FD7F147E0013
:1001030012030E75090920B3147F147E0012030E27
:0F01130030B3FD7F147E0012030E75090CAF0987
:0101220022BA
:10012300BB010CE58229F582E5833AF583E0225091
:1001330006E92582F8E622BBFE06E92582F8E222DB
:0D014300E58229F582E5833AF583E49322F5
:10015000EF8DF0A4A8F0CF8CF0A428CE8DF0A42EC3
:02016000FE227D
:10016200BC000BBE0029EF8DF084FFADF022E4CC81
:10017200F875F008EF2FFFEE33FEEC33FCEE9DEC4A
:10018200984005FCEE9DFE0FD5F0E9E4CEFD22ED90
:10019200F8F5F0EE8420D21CFEADF075F008EF2FDA
:1001A200FFED33FD4007985006D5F0F222C398FDCB
:0501B2000FD5F0EA2268
:00000001FF
