:0300000002030BED
:0C030B00787FE4F6D8FD75812302011410
:0D02FE0041444A20204E5443202047520026
:10011400E4F508F5091202DB7BFF7A0279FE7D0122
:100124007F0112024E7F9C1200978E088F09750E74
:1001340003AB09AA087D017F0212028F7FDC120043
:10014400978E088F09750E03AB09AA087D067F02F6
:1001540012028F7FAC1200978E088F09750E03ABC5
:0C01640009AA087D0B7F0212028F80B9EF
:0402AC00EF4E60149D
:1002B00000750E02750FC7D50FFDD50EFAEF1F7032
:0202C000EB1E33
:0302C20080E822AF
:0602EF00C2B68F80D2B4FC
:0802F5007F027EEFDEFEDFFC5C
:0102FD0022DE
:0A031700C2B51202EFC2B40202F5F3
:10027100CFCDCFCECCCE1200427C007D0A120042FF
:04028100ED2430FF39
:0A028500D2B51202EFC2B40202F576
:1002C500AE07BE0104ED148006BE0209ED243F44CD
:0602D50080FF1203172256
:1002DB007F381203177F0C1203177F061203177F49
:0402EB0001020317F2
:0A032100AC031202C5AF040202850E
:06024E008B0A8A0B890CEB
:100254001202C5E4FDAB0AAA0BA90C8D82758300BA
:0C026400120003FF60061202850D80E905
:01027000226B
:0C021B007F0AEA24FFFDE434FFFC7E00B3
:080227008E0F8F108C118D1257
:10022F007F017E00E4FBEBC39512E5116480F87447
:0E023F008098500AAC0FAD101200300B80E812
:01024D00228E
:04028F008A0C8B0D3D
:100293001202C5AA0EEAD39400400D12021BAC0C45
:0802A300AD0D1202711A80ED8D
:0102AB002230
:100170001202C5C3EA64809480400B7F2B12028573
:100180008A188B19800E7F2D120285C3E49BF51906
:10019000E49AF518AA17EAD39400400D12021BAC9A
:0901A00018AD191202711A80ED6C
:0101A9002233
:0401AA008A1C8B1D03
:1001AE001202C5AA1EEAD3940040297F1012021D26
:1001BE00AC1CAD1DCFCDCFCECCCE120042EF540F26
:1001CE00FEC3940AEE5004243080022437FF12023C
:0401DE00851A80D12D
:0101E20022FA
:0401E3008A218B22C0
:1001E7001202C5AA23EAD394004028EA24FFFDE4BB
:1001F70034FFFC7F027E00120227AC21AD22CFCD57
:10020700CFCECCCE120042EF54012430FF1202852C
:030217001A80D278
:01021A0022C1
:020097008F0ACE
:10009900E4F50CF50DC2A1C2B7F50B74807E00A87A
:1000A9000B088006CEA2E713CE13D8F8FFEF550A46
:1000B90024FF92A0D2A17F017E001202ACC2A10549
:1000C9000BE50BC3940840D3E4F50BD2A1C2A130D0
:1000D900A514E47E80A80B088005CEC313CE13D8DF
:1000E900F9420DEE420C050BE50BB410DED2B7E573
:1000F9000A30E306E50CFF7E0022E50CC4F854F053
:0A010900C868FEE50DC4540F48FF5E
:0101130022C9
:10000300BB010CE58229F582E5833AF583E02250B2
:1000130006E92582F8E622BBFE06E92582F8E222FC
:0D002300E58229F582E5833AF583E4932216
:10003000EF8DF0A4A8F0CF8CF0A428CE8DF0A42EE4
:02004000FE229E
:10004200BC000BBE0029EF8DF084FFADF022E4CCA2
:10005200F875F008EF2FFFEE33FEEC33FCEE9DEC6B
:10006200984005FCEE9DFE0FD5F0E9E4CEFD22EDB1
:10007200F8F5F0EE8420D21CFEADF075F008EF2FFB
:10008200FFED33FD4007985006D5F0F222C398FDEC
:050092000FD5F0EA2289
:00000001FF
