:0300000002041FD8
:0C041F00787FE4F6D8FD7581250200030B
:100384007772697465206F6B210020202020202063
:0D0394002020200072656164206F6B210045
:10000300E4F508F5091203EDE509FB7A00750E0521
:100013007D017F011203A11201688F08E508B40175
:10002300110509E509FB7A00750E057D017F0112B3
:1000330003A1E508B402111509E509FB7A00750E61
:10004300057D017F011203A1E5086403703CAD093E
:10005300FF1203267F0A7E001203BEE4FD7F011216
:1000630003267F0A7E001203BE7BFF7A0379847D19
:10007300017F021203037FE87E031203BE7BFF7A34
:1000830003798E7D017F02120303E5086404708700
:10009300FF1202A78F097F011202A7EF4209E509A8
:1000A300FB7A00750E057D017F011203A17BFF7AA8
:1000B3000379987D017F021203037FE87E03120315
:1000C300BE7BFF7A03798E7D017F02120303020058
:0100D3001A12
:0403BE00EF4E60148A
:1003C20000750B02750CC7D50CFDD50BFAEF1F702B
:0203D200EB1E20
:0303D40080E8229C
:06040100C2B68F80D2B4E8
:080407007F027EEFDEFEDFFC48
:01040F0022CA
:0A042B00C2B5120401C2B4020407B6
:10034800CFCDCFCECCCE1201137C007D0A12011383
:04035800ED2430FF61
:0A035C00D2B5120401C2B402040776
:1003D700AE07BE0104ED148006BE0209ED243F44BA
:0603E70080FF12042B222E
:1003ED007F3812042B7F0C12042B7F0612042B7FF7
:0403FD000102042BCA
:0A043500AC031203D7AF0402035C0E
:060303008B0A8A0B890C35
:100309001203D7E4FDAB0AAA0BA90C8D82758300F1
:0C0319001200D4FF600612035C0D80E9A6
:0103250022B5
:0C0274007F0AEA24FFFDE434FFFC7E005A
:080280008E0F8F108C118D12FE
:100288007F017E00E4FBEBC39512E5116480F874EE
:0E0298008098500AAC0FAD101201010B80E8E7
:0102A6002235
:0403A1008A0C8B0D2A
:1003A5001203D7AA0EEAD39400400D120274AC0CC6
:0803B500AD0D1203481A80EDA2
:0103BD00221D
:1001C9001203D7C3EA64809480400B7F2B12035C2F
:1001D9008A188B19800E7F2D12035CC3E49BF519D5
:1001E900E49AF518AA17EAD39400400D120274ACE8
:0901F90018AD191203481A80ED3B
:0102020022D9
:040203008A1C8B1DA9
:100207001203D7AA1EEAD3940040297F1012027660
:10021700AC1CAD1DCFCDCFCECCCE120113EF540FFA
:10022700FEC3940AEE5004243080022437FF1203E1
:040237005C1A80D1FC
:01023B0022A0
:04023C008A238B2462
:100240001203D7AA25EAD394004028EA24FFFDE44C
:1002500034FFFC7F027E00120280AC23AD24CFCDA0
:10026000CFCECCCE120113EF54012430FF12035C29
:030270001A80D21F
:010273002268
:09043F00D2A0D2A1C2A0C2A122E8
:07045100C2A0D2A1D2A0223B
:0202DA00AD076E
:1002DC00E4FB74807E00A803088006CEA2E713CE50
:1002EC0013D8F8FFEDF582EF558224FF92A0D2A12E
:0602FC00C2A10BBB08DCEF
:0103020022D8
:10036600E4FFFED2A0D2A130A00D7480A8060880BA
:0D03760002C313D8FC4207C2A10EBE08E866
:010383002257
:09044800A20092A0D2A1C2A122DF
:0E041000C200D2A0D2A1A2A09200C2A1A2005E
:01041E0022BB
:100326008F0A8D0B12043F7FA01202DA120410AF5F
:100336000A1202DA120410AF0B1202DA12041002C9
:02034600045160
:0202A7008F0ABC
:1002A900E4F50B12043F7FA01202DA120410AF0A20
:1002B9001202DA12041012043F7FA11202DA1204A8
:1002C900101203668F0BD200120448120451AF0BAF
:0102D9002202
:10016800E4F50A20B0137F14FE1203BE30B0FD7F01
:10017800147E001203BE750A0120B1147F147E009C
:100188001203BE30B1FD7F147E001203BE750A0251
:1001980020B2147F147E001203BE30B2FD7F147E9D
:1001A800001203BE750A0320B3147F147E001203E5
:1001B800BE30B3FD7F147E001203BE750A04AF0A79
:0101C8002214
:1000D400BB010CE58229F582E5833AF583E02250E1
:1000E40006E92582F8E622BBFE06E92582F8E2222B
:0D00F400E58229F582E5833AF583E4932245
:10010100EF8DF0A4A8F0CF8CF0A428CE8DF0A42E12
:02011100FE22CC
:10011300BC000BBE0029EF8DF084FFADF022E4CCD0
:10012300F875F008EF2FFFEE33FEEC33FCEE9DEC99
:10013300984005FCEE9DFE0FD5F0E9E4CEFD22EDDF
:10014300F8F5F0EE8420D21CFEADF075F008EF2F29
:10015300FFED33FD4007985006D5F0F222C398FD1A
:050163000FD5F0EA22B7
:00000001FF
